:0408AE007F647E00E5
:1008B200E4FDFCC3ED9FEE6480F8EC648098501573
:1008C200E4FBFA0BBB00010ABA01F8BB5EF50DBDF1
:0508D20000010C80DEB6
:0108D70022FE
:10080000D2B6D2B5D2B4D2B3D2B2D2B1D2B0C2B0D3
:1008100020B40575A0F9800E20B50575A0A480064A
:1008200020B60675A0B01208AED2B6D2B5D2B4D2F8
:10083000B3D2B2D2B1D2B0C2B120B40575A0998002
:100840000E20B50575A092800620B60675A082120E
:1008500008AED2B6D2B5D2B4D2B3D2B2D2B1D2B03F
:10086000C2B220B40575A0F8800E20B50575A08031
:10087000800620B60675A0901208AED2B6D2B5D2C8
:10088000B4D2B3D2B2D2B1D2B0C2B320B40575A043
:10089000FF800620B50975A0C01208AE020800301E
:0E08A000B60302080075A0BF1208AE020800E1
:030000000208D81B
:0C08D800787FE4F6D8FD75810702080067
:00000001FF
