:03000000020A41B0
:0C0A4100787FE4F6D8FD75811E020A885B
:100B8200414343455353204752414E54454400414B
:100B920043434553532044454E494544005452591A
:100BA20020414741494E004143434F554E54204254
:070BB2004C4F434B4544008A
:0B0C5800050C37363339000215000090
:100C44007F38120C2C7F0C120C2C7F01120C2C7F81
:040C5400C7020C2C9B
:100C14008FA0D2B0C2B1D2B27F057E00120BEEC259
:080C2400B27F057E00020BEE19
:100C2C008FA0C2B0C2B1D2B27F057E00120BEEC251
:080C3C00B27F057E00020BEE01
:060BB9007BFF7A0B799F1F
:060BBF008B178A1889194A
:100BC500E4F51AF51BAB17AA18A919851B82851A16
:100BD50083120B3CFF600D120C14051BE51B70E521
:040BE500051A80E18C
:010BE90022E9
:040BEA007F327E00D8
:100BEE00E4FDFCC3ED9FEE6480F8EC648098501534
:100BFE00E4FBFA0BBB00010ABA04F8BBFBF50DBD12
:050C0E0000010C80DE76
:010C130022BE
:10080000120C44C2B4C2B5C2B6D3E5169403E515C2
:10081000648094804003020977D293D292D291D21D
:1008200090C2902094167F2A120C1474112516F889
:1008300076310516E5167034051580302095167F43
:100840002A120C1474112516F876320516E5167066
:1008500002051580172096177F2A120C1474112593
:1008600016F876330516E51670020515120BEAD256
:1008700093D292D291D290C2912094167F2A120CD8
:100880001474112516F876340516E516703405151E
:1008900080302095167F2A120C1474112516F876D4
:1008A000350516E5167002051580172096177F2A64
:1008B000120C1474112516F876360516E51670021A
:1008C0000515120BEAD293D292D291D290C2922005
:1008D00094167F2A120C1474112516F87637051613
:1008E000E5167034051580302095167F2A120C14F9
:1008F00074112516F876380516E516700205158070
:10090000172096177F2A120C1474112516F87639C1
:100910000516E51670020515120BEAD293D292D293
:1009200091D290C2932094167F2A120C1474112530
:1009300016F8762A0516E5167037051580332095CA
:10094000167F2A120C1474112516F876300516E558
:100950001670020515801A3096030208097F2A12C4
:100960000C1474112516F876230516E51670020589
:1009700015120BEA020809751A00751B00751C1187
:10098000751D00751E047B007A00790C120ACDEFEC
:100990003395E0F50A8F0B450B7014D2B5D2B4C273
:1009A000B67F82120C2C7BFF7A0B7982120BBFD39D
:1009B000E50B9400E50A64809480500CC3E50A645A
:1009C00080948040030208090509E50970020508C2
:1009D000D2B6C2B5C2B47F83120C2C7BFF7A0B79DE
:1009E00091120BBF7F507E00120BEE7F01120C2C78
:1009F0007F83120C2C120BB9E4F515F5167FC71284
:100A00000C2CE5096403450860030208097F011204
:100A10000C2C7F81120C2C7BFF7A0B79A9120BBF57
:100A20007FF47E01120BEEE4F508F5097F01120C4C
:100A30002C7F83120C2C120BB97FC7120C2C0208CE
:010A400009AC
:100A4D00020800E493A3F8E493A34003F68001F2B7
:100A5D0008DFF48029E493A3F85407240CC8C333AA
:100A6D00C4540F4420C8834004F456800146F6DF79
:100A7D00E4800B0102040810204080900C58E47EA5
:100A8D00019360BCA3FF543F30E509541FFEE4936E
:100A9D00A360010ECF54C025E060A840B8E493A335
:100AAD00FAE493A3F8E493A3C8C582C8CAC583CA60
:100ABD00F0A3C8C582C8CAC583CADFE9DEE780BE18
:010C63000090
:100B3C00BB010CE58229F582E5833AF583E022506E
:100B4C0006E92582F8E622BBFE06E92582F8E222B8
:0D0B5C00E58229F582E5833AF583E49322D2
:100ACD008B178A188919AB1AAA1BA91C120B69FE60
:100ADD00AB17AA18A919120B69FF6E702BEF600DD9
:100AED00E51E151E7002151D14451D70037F002295
:100AFD0074012519F519E43518F5187401251CF53F
:100B0D001CE4351BF51B80BEAB17AA18A919120BD7
:100B1D0069FDD3EE6480F8ED64809840037F012277
:0F0B2D00AB1AAA1BA91C120B69FFC3ED9FFF2275
:100B6900BB010689828A83E0225002E722BBFE028A
:090B7900E32289828A83E49322BD
:00000001FF
