:03000000020904EE
:0C090400787FE4F6D8FD75810C02080035
:1008CA0057656C636F6D6500486F6D650048656CB0
:1008DA006C6F205261766952616A0053776565745C
:0608EA0020486F6D65005F
:100800001208F07BFF7A0879CA12089F7FC012098C
:10081000107BFF7A0879D212089F7FC87E001208E9
:100820004C7F011209107F831209107BFF7A08792F
:10083000D712089F7FC41209107BFF7A0879E5124E
:04084000089F80FE8F
:1008F0007F381209107F011209107F0C1209107F36
:040900008002091058
:0A0910008FA0C2B0120844C2B22248
:0A091A008FA0D2B0120844C2B2222E
:06089F008B088A09890A9A
:1008A500E4F50BF50CAB08AA09A90A850C82850BA2
:1008B50083120872FF600D12091A050CE50C70E52C
:0408C500050B80E1BE
:0108C900220C
:08084400C2B1D2B27F0A7E00AE
:10084C00E4FDFCC3ED9FEE6480F8EC6480985015D9
:10085C00E4FBFA0BBB00010ABA01F8BB5EF50DBD57
:05086C0000010C80DE1C
:010871002264
:10087200BB010CE58229F582E5833AF583E022503B
:1008820006E92582F8E622BBFE06E92582F8E22285
:0D089200E58229F582E5833AF583E493229F
:00000001FF
